:100000000C9446000C9465000C9465000C946500FB
:100010000C9465000C9465000C9465000C946500CC
:100020000C9465000C9465000C9465000C946500BC
:100030000C9465000C9465000C9465000C946500AC
:100040000C9465000C9465000C9465000C9465009C
:100050000C9465000C9465000C9465000C9465008C
:100060000C9465000C9465000C9465000C9465007C
:100070000C9465000C9465000C9465000C9465006C
:100080000C9465000C9465000C94650011241FBE4F
:10009000CFEFD0E1DEBFCDBF11E0A0E0B1E0E4ECF6
:1000A000FDE000E00BBF02C007900D92AA31B1073E
:1000B000D9F711E0AAE1B1E001C01D92A233B10766
:1000C000E1F70E9414060C94E0060C9400008FEFF8
:1000D0008ABB87BB14BA81BB82B98CEF88BB8FE324
:1000E00082BB089583B3817080932F0183B38270A4
:1000F0008093200183B384708093230183B388703D
:100100008093290183B3807180932E0183B3807221
:100110008093280180912F01882351F484E090E09E
:1001200090933101809330018091260190912701B5
:1001300080912001882351F488E090E090932B0176
:1001400080932A01809126019091270180912301BB
:10015000882351F480E190E090931F0180931E0169
:10016000809126019091270180912901882351F4E3
:1001700080E290E090932D0180932C0180912601E4
:100180009091270180912E01882351F480E490E022
:100190009093220180932101809126019091270163
:1001A00080912801882351F480E890E09093250104
:1001B000809324018091260190912701E0913001E4
:1001C000F091310160912A0170912B0140911E0143
:1001D00050911F0120912C0130912D01809121011E
:1001E00090912201A0912401B0912501982F909522
:1001F0009A1B8E2F8195861B841B821B980F98BBA0
:1002000083E58A95F1F700000895E0E7F2E0319781
:10021000F1F700C0000090E893B998E893B98BBB60
:1002200080E283B90895E6E1F1E13197F1F700C08A
:10023000000013B898E093B98BBB80EA83B90895A6
:10024000EF92FF920F931F93CF93DF93182F7B01B1
:100250000E941301C0E0D0E0012F10E00FC0CE01DA
:10026000800F911F8039910519F480EC0E941301D1
:10027000F70181917F010E9405012196F70180819C
:10028000882369F7DF91CF911F910F91FF90EF9035
:10029000089584E39CE00197F1F700C000008CE32F
:1002A0000E94130194E09A95F1F700008CE00E94FF
:1002B000130184E08A95F1F7000081E00E941301A8
:1002C0009FE79A95F1F7000086E00E9413010895D8
:1002D00087E860E071E00E9420018FE794E8AEE1DA
:1002E00081509040A040E1F700C00000089587E8E9
:1002F00064E071E00E9420018FE794E8AEE1815054
:100300009040A040E1F700C00000089587E868E051
:1003100071E00E9420018FE794E8AEE181509040A7
:10032000A040E1F700C00000089587E86CE071E0AC
:100330000E9420018FE794E8AEE181509040A040F8
:10034000E1F700C0000008951F9317E8812F61E1D5
:1003500071E00E9420018FE39DE0A3E08150904076
:10036000A040E1F700C000000E9449010E94720015
:100370001F5F1F3859F71F9108951F9317E8812FAA
:1003800063E171E00E9420018FE39DE0A3E08150D2
:100390009040A040E1F700C000000E9449010E9487
:1003A00072001F5F1F3859F71F9108951F9317E8B8
:1003B000812F65E171E00E9420018FE39DE0A3E0C1
:1003C00081509040A040E1F700C000000E94490128
:1003D0000E9472001F5F1F3859F71F9108951F93E5
:1003E00017E8812F67E171E00E9420018FE39DE013
:1003F000A3E081509040A040E1F700C000000E94BF
:1004000049010E9472001F5F1F3859F71F9108951C
:100410001F9310E8812F61E171E00E9420018FE3BA
:100420009DE0A3E081509040A040E1F700C00000B3
:100430000E9449010E9472001F5F183859F71F91EE
:1004400008951F9310E8812F63E171E00E9420015D
:100450008FE39DE0A3E081509040A040E1F700C011
:1004600000000E9449010E9472001F5F183859F76E
:100470001F9108951F9310E8812F65E171E00E949C
:1004800020018FE39DE0A3E081509040A040E1F780
:1004900000C000000E9449010E9472001F5F1838CE
:1004A00059F71F910895CF93DF9380912F018823EF
:1004B00009F09CC083E090E090931B0180931A01A7
:1004C00080911C0190911D010097B9F420911A01AF
:1004D00030911B0180911C0190911D01821793079F
:1004E00060F40E94EF010E943A020E94860181E0BE
:1004F00090E090931D0180931C0180911C019091CC
:100500001D0181309105B9F420911A0130911B0130
:1005100080911C0190911D018217930760F40E9445
:10052000D6010E9421020E94770182E090E0909320
:100530001D0180931C0180911C0190911D0182304E
:10054000910509F053C020911A0130911B0180914F
:100550001C0190911D018217930708F047C00E946B
:10056000BD010E9408020E94680183E090E0909320
:100570001D0180931C0110923101109230010E94E4
:1005800072009EE392BB2FE734E84EE121503040E9
:100590004040E1F700C000008FE382BB2FE734E862
:1005A0004EE1215030404040E1F700C0000092BBD6
:1005B0002FE734E84EE1215030404040E1F700C0E1
:1005C000000082BB2FE734E84EE12150304040402C
:1005D000E1F700C0000092BB2FED37E645E3215064
:1005E00030404040E1F700C0000082BB8091200114
:1005F000882309F09AC083E090E090931B018093D8
:100600001A0180911C0190911D010097B9F420916D
:100610001A0130911B0180911C0190911D018217DC
:10062000930760F40E94EF010E943A020E94860143
:1006300081E090E090931D0180931C0180911C014A
:1006400090911D0181309105B9F420911A013091EA
:100650001B0180911C0190911D018217930760F48A
:100660000E94D6010E9421020E94770182E090E060
:1006700090931D0180931C0180911C0190911D019C
:1006800082309105B9F420911A0130911B018091BB
:100690001C0190911D018217930760F40E94BD0117
:1006A0000E9408020E94680183E090E090931D017F
:1006B00080931C0110922B0110922A010E9472005B
:1006C0009DE392BB2FE734E84EE12150304040409B
:1006D000E1F700C000008FE382BB2FE734E84EE172
:1006E000215030404040E1F700C0000092BB2FE7AE
:1006F00034E84EE1215030404040E1F700C00000B6
:1007000082BB2FE734E84EE1215030404040E1F712
:1007100000C0000092BB2FED37E645E3215030408A
:100720004040E1F700C0000082BB80912301882394
:1007300009F09AC082E090E090931B0180931A0127
:1007400080911C0190911D010097B9F420911A012C
:1007500030911B0180911C0190911D01821793071C
:1007600060F40E94EF010E943A020E94860181E03B
:1007700090E090931D0180931C0180911C01909149
:100780001D0181309105B9F420911A0130911B01AE
:1007900080911C0190911D018217930760F40E94C3
:1007A000D6010E9421020E94770182E090E090939E
:1007B0001D0180931C0180911C0190911D018330CB
:1007C0009105B9F420911A0130911B0180911C010F
:1007D00090911D012817390760F40E94A4010E941E
:1007E00021020E94770182E090E090931D018093A6
:1007F0001C0110921F0110921E010E9472009BE3C7
:1008000092BB2FE734E84EE1215030404040E1F701
:1008100000C000008FE382BB2FE734E84EE1215097
:1008200030404040E1F700C0000092BB2FE734E8C1
:100830004EE1215030404040E1F700C0000082BB53
:100840002FE734E84EE1215030404040E1F700C04E
:10085000000092BB2FED37E645E321503040404089
:10086000E1F700C0000082BB80912901882309F0D4
:100870009AC082E090E090931B0180931A018091CE
:100880001C0190911D010097B9F420911A0130913B
:100890001B0180911C0190911D018217930760F448
:1008A0000E94EF010E943A020E94860181E090E0DE
:1008B00090931D0180931C0180911C0190911D015A
:1008C00081309105B9F420911A0130911B0180917A
:1008D0001C0190911D018217930760F40E94D601BC
:1008E0000E9421020E94770182E090E090931D0116
:1008F00080931C0180911C0190911D018330910512
:10090000B9F420911A0130911B0180911C01909142
:100910001D012817390760F40E94A4010E942102DA
:100920000E94770182E090E090931D0180931C016A
:1009300010922D0110922C010E94720097E392BB3D
:100940002FE734E84EE1215030404040E1F700C04D
:1009500000008FE382BB2FE734E84EE121503040A6
:100960004040E1F700C0000092BB2FE734E84EE1C1
:10097000215030404040E1F700C0000082BB2FE72B
:1009800034E84EE1215030404040E1F700C0000023
:1009900092BB2FED37E645E3215030404040E1F770
:1009A00000C0000082BB80912E01882309F098C00E
:1009B000C1E0D0E0D0931B01C0931A0180911C01CB
:1009C00090911D010097A9F420911A0130911B010B
:1009D00080911C0190911D018217930750F40E9491
:1009E000EF010E943A020E948601D0931D01C0933C
:1009F0001C0180911C0190911D0183309105B9F477
:100A000020911A0130911B0180911C0190911D01D0
:100A10002817390760F40E94A4010E9421020E9455
:100A2000770182E090E090931D0180931C018091FA
:100A30001C0190911D0182309105B9F420911A0199
:100A400030911B0180911C0190911D0128173907DD
:100A500060F40E94BD010E943A020E94860181E07A
:100A600090E090931D0180931C011092220110923E
:100A700021010E9472009FE292BB2FE734E84EE111
:100A8000215030404040E1F700C000008FE382BBBE
:100A90002FE734E84EE1215030404040E1F700C0FC
:100AA000000092BB2FE734E84EE121503040404037
:100AB000E1F700C0000082BB2FE734E84EE121508F
:100AC00030404040E1F700C0000092BB2FED37E618
:100AD00045E3215030404040E1F700C0000082BBB8
:100AE00080912801882309F09CC0C1E0D0E0D09318
:100AF0001B01C0931A0180911C0190911D01009768
:100B0000A9F420911A0130911B0180911C01909150
:100B10001D018217930750F40E94EF010E943A02D0
:100B20000E948601D0931D01C0931C0180911C017D
:100B300090911D0183309105B9F420911A013091F3
:100B40001B0180911C0190911D012817390760F449
:100B50000E94A4010E9421020E94770182E090E09D
:100B600090931D0180931C0180911C0190911D01A7
:100B700082309105B9F420911A0130911B018091C6
:100B80001C0190911D012817390760F40E94BD01D6
:100B90000E943A020E94860181E090E090931D013C
:100BA00080931C0110922501109224010E94720072
:100BB0009FE192BB2FE734E84EE1215030404040A6
:100BC000E1F700C000008FE382BB2FE734E84EE17D
:100BD000215030404040E1F700C0000092BB2FE7B9
:100BE00034E84EE1215030404040E1F700C00000C1
:100BF00082BB2FE734E84EE1215030404040E1F71E
:100C000000C0000092BB2FED37E645E32150304095
:100C10004040E1F700C0000082BB10922501109215
:100C20002401DF91CF9108950E9467000E9449013D
:100C30000E9495010E9472000E945302FBCF1F93F5
:100C400010E8812F67E171E00E9420018FE39DE0B1
:100C5000A3E081509040A040E1F700C000000E9456
:100C600049010E9472001F5F183859F71F910895BB
:100C7000CF93DF93C0E0D0E09E012058822F61E146
:100C800071E00E942001C730D10551F48AE698EC4A
:100C9000ABE7B2E081509040A040B040D9F70000EF
:100CA0008FE39DE0A3E081509040A040E1F700C0B9
:100CB00000000E9449012196C031D105E9F6DF917B
:100CC000CF910895CF93DF93C0E0D0E09E012058EC
:100CD000822F63E171E00E942001C730D10551F4F9
:100CE0008AE698ECABE7B2E081509040A040B0407B
:100CF000D9F700008FE39DE0A3E081509040A04031
:100D0000E1F700C000000E9449012196C031D105E1
:100D1000E9F6DF91CF910895CF93DF93C0E0D0E063
:100D20009E012058822F65E171E00E942001C730AA
:100D3000D10551F48AE698ECABE7B2E081509040DF
:100D4000A040B040D9F700008FE39DE0A3E08150C0
:100D50009040A040E1F700C000000E9449012196A8
:100D6000C031D105E9F6DF91CF910895CF93DF939C
:100D7000C0E0D0E09E012058822F67E171E00E9420
:100D80002001C730D10551F48AE698ECABE7B2E018
:100D900081509040A040B040D9F700008FE39DE023
:100DA000A3E081509040A040E1F700C000000E9405
:100DB00049012196C031D105E9F6DF91CF9108951F
:040DC000F894FFCFD5
:100DC4007C337C007C327C007C317C007C42317C36
:0A0DD400003300320031004231000C
:00000001FF
